{
  "address": "0x4d9F935d4AdDA0ee8F6fB571cDe3E8Ac18c1F61B",
  "abi": [
    {
      "inputs": [],
      "stateMutability": "nonpayable",
      "type": "constructor"
    },
    {
      "anonymous": false,
      "inputs": [
        {
          "indexed": true,
          "internalType": "address",
          "name": "owner",
          "type": "address"
        },
        {
          "indexed": true,
          "internalType": "address",
          "name": "approved",
          "type": "address"
        },
        {
          "indexed": true,
          "internalType": "uint256",
          "name": "tokenId",
          "type": "uint256"
        }
      ],
      "name": "Approval",
      "type": "event"
    },
    {
      "anonymous": false,
      "inputs": [
        {
          "indexed": true,
          "internalType": "address",
          "name": "owner",
          "type": "address"
        },
        {
          "indexed": true,
          "internalType": "address",
          "name": "operator",
          "type": "address"
        },
        {
          "indexed": false,
          "internalType": "bool",
          "name": "approved",
          "type": "bool"
        }
      ],
      "name": "ApprovalForAll",
      "type": "event"
    },
    {
      "anonymous": false,
      "inputs": [
        {
          "indexed": true,
          "internalType": "address",
          "name": "from",
          "type": "address"
        },
        {
          "indexed": true,
          "internalType": "address",
          "name": "to",
          "type": "address"
        },
        {
          "indexed": true,
          "internalType": "uint256",
          "name": "tokenId",
          "type": "uint256"
        }
      ],
      "name": "Transfer",
      "type": "event"
    },
    {
      "anonymous": false,
      "inputs": [
        {
          "indexed": true,
          "internalType": "uint256",
          "name": "tokenID",
          "type": "uint256"
        },
        {
          "indexed": false,
          "internalType": "string",
          "name": "tokenURI",
          "type": "string"
        }
      ],
      "name": "createdSVGNFT",
      "type": "event"
    },
    {
      "inputs": [
        {
          "internalType": "address",
          "name": "to",
          "type": "address"
        },
        {
          "internalType": "uint256",
          "name": "tokenId",
          "type": "uint256"
        }
      ],
      "name": "approve",
      "outputs": [],
      "stateMutability": "nonpayable",
      "type": "function"
    },
    {
      "inputs": [
        {
          "internalType": "address",
          "name": "owner",
          "type": "address"
        }
      ],
      "name": "balanceOf",
      "outputs": [
        {
          "internalType": "uint256",
          "name": "",
          "type": "uint256"
        }
      ],
      "stateMutability": "view",
      "type": "function"
    },
    {
      "inputs": [
        {
          "internalType": "string",
          "name": "svg",
          "type": "string"
        }
      ],
      "name": "create",
      "outputs": [],
      "stateMutability": "nonpayable",
      "type": "function"
    },
    {
      "inputs": [
        {
          "internalType": "string",
          "name": "imageURI",
          "type": "string"
        }
      ],
      "name": "formatTokenURI",
      "outputs": [
        {
          "internalType": "string",
          "name": "",
          "type": "string"
        }
      ],
      "stateMutability": "pure",
      "type": "function"
    },
    {
      "inputs": [
        {
          "internalType": "uint256",
          "name": "tokenId",
          "type": "uint256"
        }
      ],
      "name": "getApproved",
      "outputs": [
        {
          "internalType": "address",
          "name": "",
          "type": "address"
        }
      ],
      "stateMutability": "view",
      "type": "function"
    },
    {
      "inputs": [
        {
          "internalType": "address",
          "name": "owner",
          "type": "address"
        },
        {
          "internalType": "address",
          "name": "operator",
          "type": "address"
        }
      ],
      "name": "isApprovedForAll",
      "outputs": [
        {
          "internalType": "bool",
          "name": "",
          "type": "bool"
        }
      ],
      "stateMutability": "view",
      "type": "function"
    },
    {
      "inputs": [],
      "name": "name",
      "outputs": [
        {
          "internalType": "string",
          "name": "",
          "type": "string"
        }
      ],
      "stateMutability": "view",
      "type": "function"
    },
    {
      "inputs": [
        {
          "internalType": "uint256",
          "name": "tokenId",
          "type": "uint256"
        }
      ],
      "name": "ownerOf",
      "outputs": [
        {
          "internalType": "address",
          "name": "",
          "type": "address"
        }
      ],
      "stateMutability": "view",
      "type": "function"
    },
    {
      "inputs": [
        {
          "internalType": "address",
          "name": "from",
          "type": "address"
        },
        {
          "internalType": "address",
          "name": "to",
          "type": "address"
        },
        {
          "internalType": "uint256",
          "name": "tokenId",
          "type": "uint256"
        }
      ],
      "name": "safeTransferFrom",
      "outputs": [],
      "stateMutability": "nonpayable",
      "type": "function"
    },
    {
      "inputs": [
        {
          "internalType": "address",
          "name": "from",
          "type": "address"
        },
        {
          "internalType": "address",
          "name": "to",
          "type": "address"
        },
        {
          "internalType": "uint256",
          "name": "tokenId",
          "type": "uint256"
        },
        {
          "internalType": "bytes",
          "name": "_data",
          "type": "bytes"
        }
      ],
      "name": "safeTransferFrom",
      "outputs": [],
      "stateMutability": "nonpayable",
      "type": "function"
    },
    {
      "inputs": [
        {
          "internalType": "address",
          "name": "operator",
          "type": "address"
        },
        {
          "internalType": "bool",
          "name": "approved",
          "type": "bool"
        }
      ],
      "name": "setApprovalForAll",
      "outputs": [],
      "stateMutability": "nonpayable",
      "type": "function"
    },
    {
      "inputs": [
        {
          "internalType": "bytes4",
          "name": "interfaceId",
          "type": "bytes4"
        }
      ],
      "name": "supportsInterface",
      "outputs": [
        {
          "internalType": "bool",
          "name": "",
          "type": "bool"
        }
      ],
      "stateMutability": "view",
      "type": "function"
    },
    {
      "inputs": [
        {
          "internalType": "string",
          "name": "svg",
          "type": "string"
        }
      ],
      "name": "svgToImageUri",
      "outputs": [
        {
          "internalType": "string",
          "name": "",
          "type": "string"
        }
      ],
      "stateMutability": "pure",
      "type": "function"
    },
    {
      "inputs": [],
      "name": "symbol",
      "outputs": [
        {
          "internalType": "string",
          "name": "",
          "type": "string"
        }
      ],
      "stateMutability": "view",
      "type": "function"
    },
    {
      "inputs": [],
      "name": "tokenCounter",
      "outputs": [
        {
          "internalType": "uint256",
          "name": "",
          "type": "uint256"
        }
      ],
      "stateMutability": "view",
      "type": "function"
    },
    {
      "inputs": [
        {
          "internalType": "uint256",
          "name": "tokenId",
          "type": "uint256"
        }
      ],
      "name": "tokenURI",
      "outputs": [
        {
          "internalType": "string",
          "name": "",
          "type": "string"
        }
      ],
      "stateMutability": "view",
      "type": "function"
    },
    {
      "inputs": [
        {
          "internalType": "address",
          "name": "from",
          "type": "address"
        },
        {
          "internalType": "address",
          "name": "to",
          "type": "address"
        },
        {
          "internalType": "uint256",
          "name": "tokenId",
          "type": "uint256"
        }
      ],
      "name": "transferFrom",
      "outputs": [],
      "stateMutability": "nonpayable",
      "type": "function"
    }
  ],
  "transactionHash": "0x0ea1b90f5e59cd2f8b36c02ef6c4a76e6ce24d9e7f79dd24d35132b2c8043f1b",
  "args": [],
  "solcInputHash": "33312647a572f662d0115be5681c8f63",
  "bytecode": "0x60806040523480156200001157600080fd5b506040518060400160405280600681526020017f5356474e465400000000000000000000000000000000000000000000000000008152506040518060400160405280600681526020017f7376674e46740000000000000000000000000000000000000000000000000000815250816000908051906020019062000096929190620000c0565b508060019080519060200190620000af929190620000c0565b5050506000600781905550620001d5565b828054620000ce906200019f565b90600052602060002090601f016020900481019282620000f257600085556200013e565b82601f106200010d57805160ff19168380011785556200013e565b828001600101855582156200013e579182015b828111156200013d57825182559160200191906001019062000120565b5b5090506200014d919062000151565b5090565b5b808211156200016c57600081600090555060010162000152565b5090565b7f4e487b7100000000000000000000000000000000000000000000000000000000600052602260045260246000fd5b60006002820490506001821680620001b857607f821691505b60208210811415620001cf57620001ce62000170565b5b50919050565b61323480620001e56000396000f3fe608060405234801561001057600080fd5b506004361061010b5760003560e01c806370a08231116100a2578063b6a46b3b11610071578063b6a46b3b146102dc578063b88d4fde146102f8578063c87b56dd14610314578063d082e38114610344578063e985e9c5146103625761010b565b806370a082311461024257806371aee1931461027257806395d89b41146102a2578063a22cb465146102c05761010b565b806323b872dd116100de57806323b872dd146101aa5780633207d93c146101c657806342842e0e146101f65780636352211e146102125761010b565b806301ffc9a71461011057806306fdde0314610140578063081812fc1461015e578063095ea7b31461018e575b600080fd5b61012a60048036038101906101259190611ce4565b610392565b6040516101379190611d2c565b60405180910390f35b610148610474565b6040516101559190611de0565b60405180910390f35b61017860048036038101906101739190611e38565b610506565b6040516101859190611ea6565b60405180910390f35b6101a860048036038101906101a39190611eed565b61058b565b005b6101c460048036038101906101bf9190611f2d565b6106a3565b005b6101e060048036038101906101db91906120b5565b610703565b6040516101ed9190611de0565b60405180910390f35b610210600480360381019061020b9190611f2d565b61079c565b005b61022c60048036038101906102279190611e38565b6107bc565b6040516102399190611ea6565b60405180910390f35b61025c600480360381019061025791906120fe565b61086e565b604051610269919061213a565b60405180910390f35b61028c600480360381019061028791906120b5565b610926565b6040516102999190611de0565b60405180910390f35b6102aa6109b3565b6040516102b79190611de0565b60405180910390f35b6102da60048036038101906102d59190612181565b610a45565b005b6102f660048036038101906102f191906120b5565b610bc6565b005b610312600480360381019061030d9190612262565b610c4c565b005b61032e60048036038101906103299190611e38565b610cae565b60405161033b9190611de0565b60405180910390f35b61034c610e00565b604051610359919061213a565b60405180910390f35b61037c600480360381019061037791906122e5565b610e06565b6040516103899190611d2c565b60405180910390f35b60007f80ac58cd000000000000000000000000000000000000000000000000000000007bffffffffffffffffffffffffffffffffffffffffffffffffffffffff1916827bffffffffffffffffffffffffffffffffffffffffffffffffffffffff1916148061045d57507f5b5e139f000000000000000000000000000000000000000000000000000000007bffffffffffffffffffffffffffffffffffffffffffffffffffffffff1916827bffffffffffffffffffffffffffffffffffffffffffffffffffffffff1916145b8061046d575061046c82610e9a565b5b9050919050565b60606000805461048390612354565b80601f01602080910402602001604051908101604052809291908181526020018280546104af90612354565b80156104fc5780601f106104d1576101008083540402835291602001916104fc565b820191906000526020600020905b8154815290600101906020018083116104df57829003601f168201915b5050505050905090565b600061051182610f04565b610550576040517f08c379a0000000000000000000000000000000000000000000000000000000008152600401610547906123f8565b60405180910390fd5b6004600083815260200190815260200160002060009054906101000a900473ffffffffffffffffffffffffffffffffffffffff169050919050565b6000610596826107bc565b90508073ffffffffffffffffffffffffffffffffffffffff168373ffffffffffffffffffffffffffffffffffffffff161415610607576040517f08c379a00000000000000000000000000000000000000000000000000000000081526004016105fe9061248a565b60405180910390fd5b8073ffffffffffffffffffffffffffffffffffffffff16610626610f70565b73ffffffffffffffffffffffffffffffffffffffff16148061065557506106548161064f610f70565b610e06565b5b610694576040517f08c379a000000000000000000000000000000000000000000000000000000000815260040161068b9061251c565b60405180910390fd5b61069e8383610f78565b505050565b6106b46106ae610f70565b82611031565b6106f3576040517f08c379a00000000000000000000000000000000000000000000000000000000081526004016106ea906125ae565b60405180910390fd5b6106fe83838361110f565b505050565b606060006040518060400160405280601b81526020017f646174613a20696d6167652f7376672b786d6c3b6261736536342c00000000008152509050600061076984604051602001610755919061260a565b60405160208183030381529060405261136b565b905060008282604051602001610780929190612621565b6040516020818303038152906040529050809350505050919050565b6107b783838360405180602001604052806000815250610c4c565b505050565b6000806002600084815260200190815260200160002060009054906101000a900473ffffffffffffffffffffffffffffffffffffffff169050600073ffffffffffffffffffffffffffffffffffffffff168173ffffffffffffffffffffffffffffffffffffffff161415610865576040517f08c379a000000000000000000000000000000000000000000000000000000000815260040161085c906126b7565b60405180910390fd5b80915050919050565b60008073ffffffffffffffffffffffffffffffffffffffff168273ffffffffffffffffffffffffffffffffffffffff1614156108df576040517f08c379a00000000000000000000000000000000000000000000000000000000081526004016108d690612749565b60405180910390fd5b600360008373ffffffffffffffffffffffffffffffffffffffff1673ffffffffffffffffffffffffffffffffffffffff168152602001908152602001600020549050919050565b606060006040518060400160405280601d81526020017f646174613a6170706c69636174696f6e2f6a736f6e3b6261736536342c00000081525090508061098b8460405160200161097791906128bf565b60405160208183030381529060405261136b565b60405160200161099c92919061294e565b604051602081830303815290604052915050919050565b6060600180546109c290612354565b80601f01602080910402602001604051908101604052809291908181526020018280546109ee90612354565b8015610a3b5780601f10610a1057610100808354040283529160200191610a3b565b820191906000526020600020905b815481529060010190602001808311610a1e57829003601f168201915b5050505050905090565b610a4d610f70565b73ffffffffffffffffffffffffffffffffffffffff168273ffffffffffffffffffffffffffffffffffffffff161415610abb576040517f08c379a0000000000000000000000000000000000000000000000000000000008152600401610ab2906129c9565b60405180910390fd5b8060056000610ac8610f70565b73ffffffffffffffffffffffffffffffffffffffff1673ffffffffffffffffffffffffffffffffffffffff16815260200190815260200160002060008473ffffffffffffffffffffffffffffffffffffffff1673ffffffffffffffffffffffffffffffffffffffff16815260200190815260200160002060006101000a81548160ff0219169083151502179055508173ffffffffffffffffffffffffffffffffffffffff16610b75610f70565b73ffffffffffffffffffffffffffffffffffffffff167f17307eab39ab6107e8899845ad3d59bd9653f200f220920489ca2b5937696c3183604051610bba9190611d2c565b60405180910390a35050565b610bd2336007546114f0565b6000610bdd82610703565b90506000610bea82610926565b9050610bf86007548261150e565b6007547f1644575f6add8ef5f224418e2440ee4f520ae83b0c419a91ac64e8661a8247e482604051610c2a9190611de0565b60405180910390a26001600754610c419190612a18565b600781905550505050565b610c5d610c57610f70565b83611031565b610c9c576040517f08c379a0000000000000000000000000000000000000000000000000000000008152600401610c93906125ae565b60405180910390fd5b610ca884848484611582565b50505050565b6060610cb982610f04565b610cf8576040517f08c379a0000000000000000000000000000000000000000000000000000000008152600401610cef90612ae0565b60405180910390fd5b6000600660008481526020019081526020016000208054610d1890612354565b80601f0160208091040260200160405190810160405280929190818152602001828054610d4490612354565b8015610d915780601f10610d6657610100808354040283529160200191610d91565b820191906000526020600020905b815481529060010190602001808311610d7457829003601f168201915b505050505090506000610da26115de565b9050600081511415610db8578192505050610dfb565b600082511115610ded578082604051602001610dd5929190612621565b60405160208183030381529060405292505050610dfb565b610df6846115f5565b925050505b919050565b60075481565b6000600560008473ffffffffffffffffffffffffffffffffffffffff1673ffffffffffffffffffffffffffffffffffffffff16815260200190815260200160002060008373ffffffffffffffffffffffffffffffffffffffff1673ffffffffffffffffffffffffffffffffffffffff16815260200190815260200160002060009054906101000a900460ff16905092915050565b60007f01ffc9a7000000000000000000000000000000000000000000000000000000007bffffffffffffffffffffffffffffffffffffffffffffffffffffffff1916827bffffffffffffffffffffffffffffffffffffffffffffffffffffffff1916149050919050565b60008073ffffffffffffffffffffffffffffffffffffffff166002600084815260200190815260200160002060009054906101000a900473ffffffffffffffffffffffffffffffffffffffff1673ffffffffffffffffffffffffffffffffffffffff1614159050919050565b600033905090565b816004600083815260200190815260200160002060006101000a81548173ffffffffffffffffffffffffffffffffffffffff021916908373ffffffffffffffffffffffffffffffffffffffff160217905550808273ffffffffffffffffffffffffffffffffffffffff16610feb836107bc565b73ffffffffffffffffffffffffffffffffffffffff167f8c5be1e5ebec7d5bd14f71427d1e84f3dd0314c0f7b2291e5b200ac8c7c3b92560405160405180910390a45050565b600061103c82610f04565b61107b576040517f08c379a000000000000000000000000000000000000000000000000000000000815260040161107290612b72565b60405180910390fd5b6000611086836107bc565b90508073ffffffffffffffffffffffffffffffffffffffff168473ffffffffffffffffffffffffffffffffffffffff1614806110f557508373ffffffffffffffffffffffffffffffffffffffff166110dd84610506565b73ffffffffffffffffffffffffffffffffffffffff16145b8061110657506111058185610e06565b5b91505092915050565b8273ffffffffffffffffffffffffffffffffffffffff1661112f826107bc565b73ffffffffffffffffffffffffffffffffffffffff1614611185576040517f08c379a000000000000000000000000000000000000000000000000000000000815260040161117c90612c04565b60405180910390fd5b600073ffffffffffffffffffffffffffffffffffffffff168273ffffffffffffffffffffffffffffffffffffffff1614156111f5576040517f08c379a00000000000000000000000000000000000000000000000000000000081526004016111ec90612c96565b60405180910390fd5b61120083838361169c565b61120b600082610f78565b6001600360008573ffffffffffffffffffffffffffffffffffffffff1673ffffffffffffffffffffffffffffffffffffffff168152602001908152602001600020600082825461125b9190612cb6565b925050819055506001600360008473ffffffffffffffffffffffffffffffffffffffff1673ffffffffffffffffffffffffffffffffffffffff16815260200190815260200160002060008282546112b29190612a18565b92505081905550816002600083815260200190815260200160002060006101000a81548173ffffffffffffffffffffffffffffffffffffffff021916908373ffffffffffffffffffffffffffffffffffffffff160217905550808273ffffffffffffffffffffffffffffffffffffffff168473ffffffffffffffffffffffffffffffffffffffff167fddf252ad1be2c89b69c2b068fc378daa952ba7f163c4a11628f55a4df523b3ef60405160405180910390a4505050565b606060008251141561138e576040518060200160405280600081525090506114eb565b60006040518060600160405280604081526020016131bf60409139905060006003600285516113bd9190612a18565b6113c79190612d19565b60046113d39190612d4a565b905060006020826113e49190612a18565b67ffffffffffffffff8111156113fd576113fc611f8a565b5b6040519080825280601f01601f19166020018201604052801561142f5781602001600182028036833780820191505090505b509050818152600183018586518101602084015b818310156114aa576003830192508251603f8160121c1685015160f81b8252600182019150603f81600c1c1685015160f81b8252600182019150603f8160061c1685015160f81b8252600182019150603f811685015160f81b825260018201915050611443565b6003895106600181146114c457600281146114d4576114df565b613d3d60f01b60028303526114df565b603d60f81b60018303525b50505050508093505050505b919050565b61150a8282604051806020016040528060008152506116a1565b5050565b61151782610f04565b611556576040517f08c379a000000000000000000000000000000000000000000000000000000000815260040161154d90612e16565b60405180910390fd5b8060066000848152602001908152602001600020908051906020019061157d929190611bd5565b505050565b61158d84848461110f565b611599848484846116fc565b6115d8576040517f08c379a00000000000000000000000000000000000000000000000000000000081526004016115cf90612ea8565b60405180910390fd5b50505050565b606060405180602001604052806000815250905090565b606061160082610f04565b61163f576040517f08c379a000000000000000000000000000000000000000000000000000000000815260040161163690612f3a565b60405180910390fd5b60006116496115de565b905060008151116116695760405180602001604052806000815250611694565b8061167384611893565b604051602001611684929190612621565b6040516020818303038152906040525b915050919050565b505050565b6116ab83836119f4565b6116b860008484846116fc565b6116f7576040517f08c379a00000000000000000000000000000000000000000000000000000000081526004016116ee90612ea8565b60405180910390fd5b505050565b600061171d8473ffffffffffffffffffffffffffffffffffffffff16611bc2565b15611886578373ffffffffffffffffffffffffffffffffffffffff1663150b7a02611746610f70565b8786866040518563ffffffff1660e01b81526004016117689493929190612faf565b602060405180830381600087803b15801561178257600080fd5b505af19250505080156117b357506040513d601f19601f820116820180604052508101906117b09190613010565b60015b611836573d80600081146117e3576040519150601f19603f3d011682016040523d82523d6000602084013e6117e8565b606091505b5060008151141561182e576040517f08c379a000000000000000000000000000000000000000000000000000000000815260040161182590612ea8565b60405180910390fd5b805181602001fd5b63150b7a0260e01b7bffffffffffffffffffffffffffffffffffffffffffffffffffffffff1916817bffffffffffffffffffffffffffffffffffffffffffffffffffffffff19161491505061188b565b600190505b949350505050565b606060008214156118db576040518060400160405280600181526020017f300000000000000000000000000000000000000000000000000000000000000081525090506119ef565b600082905060005b6000821461190d5780806118f69061303d565b915050600a826119069190612d19565b91506118e3565b60008167ffffffffffffffff81111561192957611928611f8a565b5b6040519080825280601f01601f19166020018201604052801561195b5781602001600182028036833780820191505090505b5090505b600085146119e8576001826119749190612cb6565b9150600a856119839190613086565b603061198f9190612a18565b60f81b8183815181106119a5576119a46130b7565b5b60200101907effffffffffffffffffffffffffffffffffffffffffffffffffffffffffffff1916908160001a905350600a856119e19190612d19565b945061195f565b8093505050505b919050565b600073ffffffffffffffffffffffffffffffffffffffff168273ffffffffffffffffffffffffffffffffffffffff161415611a64576040517f08c379a0000000000000000000000000000000000000000000000000000000008152600401611a5b90613132565b60405180910390fd5b611a6d81610f04565b15611aad576040517f08c379a0000000000000000000000000000000000000000000000000000000008152600401611aa49061319e565b60405180910390fd5b611ab96000838361169c565b6001600360008473ffffffffffffffffffffffffffffffffffffffff1673ffffffffffffffffffffffffffffffffffffffff1681526020019081526020016000206000828254611b099190612a18565b92505081905550816002600083815260200190815260200160002060006101000a81548173ffffffffffffffffffffffffffffffffffffffff021916908373ffffffffffffffffffffffffffffffffffffffff160217905550808273ffffffffffffffffffffffffffffffffffffffff16600073ffffffffffffffffffffffffffffffffffffffff167fddf252ad1be2c89b69c2b068fc378daa952ba7f163c4a11628f55a4df523b3ef60405160405180910390a45050565b600080823b905060008111915050919050565b828054611be190612354565b90600052602060002090601f016020900481019282611c035760008555611c4a565b82601f10611c1c57805160ff1916838001178555611c4a565b82800160010185558215611c4a579182015b82811115611c49578251825591602001919060010190611c2e565b5b509050611c579190611c5b565b5090565b5b80821115611c74576000816000905550600101611c5c565b5090565b6000604051905090565b600080fd5b600080fd5b60007fffffffff0000000000000000000000000000000000000000000000000000000082169050919050565b611cc181611c8c565b8114611ccc57600080fd5b50565b600081359050611cde81611cb8565b92915050565b600060208284031215611cfa57611cf9611c82565b5b6000611d0884828501611ccf565b91505092915050565b60008115159050919050565b611d2681611d11565b82525050565b6000602082019050611d416000830184611d1d565b92915050565b600081519050919050565b600082825260208201905092915050565b60005b83811015611d81578082015181840152602081019050611d66565b83811115611d90576000848401525b50505050565b6000601f19601f8301169050919050565b6000611db282611d47565b611dbc8185611d52565b9350611dcc818560208601611d63565b611dd581611d96565b840191505092915050565b60006020820190508181036000830152611dfa8184611da7565b905092915050565b6000819050919050565b611e1581611e02565b8114611e2057600080fd5b50565b600081359050611e3281611e0c565b92915050565b600060208284031215611e4e57611e4d611c82565b5b6000611e5c84828501611e23565b91505092915050565b600073ffffffffffffffffffffffffffffffffffffffff82169050919050565b6000611e9082611e65565b9050919050565b611ea081611e85565b82525050565b6000602082019050611ebb6000830184611e97565b92915050565b611eca81611e85565b8114611ed557600080fd5b50565b600081359050611ee781611ec1565b92915050565b60008060408385031215611f0457611f03611c82565b5b6000611f1285828601611ed8565b9250506020611f2385828601611e23565b9150509250929050565b600080600060608486031215611f4657611f45611c82565b5b6000611f5486828701611ed8565b9350506020611f6586828701611ed8565b9250506040611f7686828701611e23565b9150509250925092565b600080fd5b600080fd5b7f4e487b7100000000000000000000000000000000000000000000000000000000600052604160045260246000fd5b611fc282611d96565b810181811067ffffffffffffffff82111715611fe157611fe0611f8a565b5b80604052505050565b6000611ff4611c78565b90506120008282611fb9565b919050565b600067ffffffffffffffff8211156120205761201f611f8a565b5b61202982611d96565b9050602081019050919050565b82818337600083830152505050565b600061205861205384612005565b611fea565b90508281526020810184848401111561207457612073611f85565b5b61207f848285612036565b509392505050565b600082601f83011261209c5761209b611f80565b5b81356120ac848260208601612045565b91505092915050565b6000602082840312156120cb576120ca611c82565b5b600082013567ffffffffffffffff8111156120e9576120e8611c87565b5b6120f584828501612087565b91505092915050565b60006020828403121561211457612113611c82565b5b600061212284828501611ed8565b91505092915050565b61213481611e02565b82525050565b600060208201905061214f600083018461212b565b92915050565b61215e81611d11565b811461216957600080fd5b50565b60008135905061217b81612155565b92915050565b6000806040838503121561219857612197611c82565b5b60006121a685828601611ed8565b92505060206121b78582860161216c565b9150509250929050565b600067ffffffffffffffff8211156121dc576121db611f8a565b5b6121e582611d96565b9050602081019050919050565b6000612205612200846121c1565b611fea565b90508281526020810184848401111561222157612220611f85565b5b61222c848285612036565b509392505050565b600082601f83011261224957612248611f80565b5b81356122598482602086016121f2565b91505092915050565b6000806000806080858703121561227c5761227b611c82565b5b600061228a87828801611ed8565b945050602061229b87828801611ed8565b93505060406122ac87828801611e23565b925050606085013567ffffffffffffffff8111156122cd576122cc611c87565b5b6122d987828801612234565b91505092959194509250565b600080604083850312156122fc576122fb611c82565b5b600061230a85828601611ed8565b925050602061231b85828601611ed8565b9150509250929050565b7f4e487b7100000000000000000000000000000000000000000000000000000000600052602260045260246000fd5b6000600282049050600182168061236c57607f821691505b602082108114156123805761237f612325565b5b50919050565b7f4552433732313a20617070726f76656420717565727920666f72206e6f6e657860008201527f697374656e7420746f6b656e0000000000000000000000000000000000000000602082015250565b60006123e2602c83611d52565b91506123ed82612386565b604082019050919050565b60006020820190508181036000830152612411816123d5565b9050919050565b7f4552433732313a20617070726f76616c20746f2063757272656e74206f776e6560008201527f7200000000000000000000000000000000000000000000000000000000000000602082015250565b6000612474602183611d52565b915061247f82612418565b604082019050919050565b600060208201905081810360008301526124a381612467565b9050919050565b7f4552433732313a20617070726f76652063616c6c6572206973206e6f74206f7760008201527f6e6572206e6f7220617070726f76656420666f7220616c6c0000000000000000602082015250565b6000612506603883611d52565b9150612511826124aa565b604082019050919050565b60006020820190508181036000830152612535816124f9565b9050919050565b7f4552433732313a207472616e736665722063616c6c6572206973206e6f74206f60008201527f776e6572206e6f7220617070726f766564000000000000000000000000000000602082015250565b6000612598603183611d52565b91506125a38261253c565b604082019050919050565b600060208201905081810360008301526125c78161258b565b9050919050565b600081905092915050565b60006125e482611d47565b6125ee81856125ce565b93506125fe818560208601611d63565b80840191505092915050565b600061261682846125d9565b915081905092915050565b600061262d82856125d9565b915061263982846125d9565b91508190509392505050565b7f4552433732313a206f776e657220717565727920666f72206e6f6e657869737460008201527f656e7420746f6b656e0000000000000000000000000000000000000000000000602082015250565b60006126a1602983611d52565b91506126ac82612645565b604082019050919050565b600060208201905081810360008301526126d081612694565b9050919050565b7f4552433732313a2062616c616e636520717565727920666f7220746865207a6560008201527f726f206164647265737300000000000000000000000000000000000000000000602082015250565b6000612733602a83611d52565b915061273e826126d7565b604082019050919050565b6000602082019050818103600083015261276281612726565b9050919050565b7f7b226e616d65223a2022535647204e4654222c00000000000000000000000000600082015250565b600061279f6013836125ce565b91506127aa82612769565b601382019050919050565b7f226465736372697074696f6e3a204e4654206d6164652077697468205356472260008201527f2c00000000000000000000000000000000000000000000000000000000000000602082015250565b60006128116021836125ce565b915061281c826127b5565b602182019050919050565b7f22617474726962757465733a2022222c20696d6167653a202200000000000000600082015250565b600061285d6019836125ce565b915061286882612827565b601982019050919050565b7f227d000000000000000000000000000000000000000000000000000000000000600082015250565b60006128a96002836125ce565b91506128b482612873565b600282019050919050565b60006128ca82612792565b91506128d582612804565b91506128e082612850565b91506128ec82846125d9565b91506128f78261289c565b915081905092915050565b7f2c00000000000000000000000000000000000000000000000000000000000000600082015250565b60006129386001836125ce565b915061294382612902565b600182019050919050565b600061295a82856125d9565b91506129658261292b565b915061297182846125d9565b91508190509392505050565b7f4552433732313a20617070726f766520746f2063616c6c657200000000000000600082015250565b60006129b3601983611d52565b91506129be8261297d565b602082019050919050565b600060208201905081810360008301526129e2816129a6565b9050919050565b7f4e487b7100000000000000000000000000000000000000000000000000000000600052601160045260246000fd5b6000612a2382611e02565b9150612a2e83611e02565b9250827fffffffffffffffffffffffffffffffffffffffffffffffffffffffffffffffff03821115612a6357612a626129e9565b5b828201905092915050565b7f45524337323155524953746f726167653a2055524920717565727920666f722060008201527f6e6f6e6578697374656e7420746f6b656e000000000000000000000000000000602082015250565b6000612aca603183611d52565b9150612ad582612a6e565b604082019050919050565b60006020820190508181036000830152612af981612abd565b9050919050565b7f4552433732313a206f70657261746f7220717565727920666f72206e6f6e657860008201527f697374656e7420746f6b656e0000000000000000000000000000000000000000602082015250565b6000612b5c602c83611d52565b9150612b6782612b00565b604082019050919050565b60006020820190508181036000830152612b8b81612b4f565b9050919050565b7f4552433732313a207472616e73666572206f6620746f6b656e2074686174206960008201527f73206e6f74206f776e0000000000000000000000000000000000000000000000602082015250565b6000612bee602983611d52565b9150612bf982612b92565b604082019050919050565b60006020820190508181036000830152612c1d81612be1565b9050919050565b7f4552433732313a207472616e7366657220746f20746865207a65726f2061646460008201527f7265737300000000000000000000000000000000000000000000000000000000602082015250565b6000612c80602483611d52565b9150612c8b82612c24565b604082019050919050565b60006020820190508181036000830152612caf81612c73565b9050919050565b6000612cc182611e02565b9150612ccc83611e02565b925082821015612cdf57612cde6129e9565b5b828203905092915050565b7f4e487b7100000000000000000000000000000000000000000000000000000000600052601260045260246000fd5b6000612d2482611e02565b9150612d2f83611e02565b925082612d3f57612d3e612cea565b5b828204905092915050565b6000612d5582611e02565b9150612d6083611e02565b9250817fffffffffffffffffffffffffffffffffffffffffffffffffffffffffffffffff0483118215151615612d9957612d986129e9565b5b828202905092915050565b7f45524337323155524953746f726167653a2055524920736574206f66206e6f6e60008201527f6578697374656e7420746f6b656e000000000000000000000000000000000000602082015250565b6000612e00602e83611d52565b9150612e0b82612da4565b604082019050919050565b60006020820190508181036000830152612e2f81612df3565b9050919050565b7f4552433732313a207472616e7366657220746f206e6f6e20455243373231526560008201527f63656976657220696d706c656d656e7465720000000000000000000000000000602082015250565b6000612e92603283611d52565b9150612e9d82612e36565b604082019050919050565b60006020820190508181036000830152612ec181612e85565b9050919050565b7f4552433732314d657461646174613a2055524920717565727920666f72206e6f60008201527f6e6578697374656e7420746f6b656e0000000000000000000000000000000000602082015250565b6000612f24602f83611d52565b9150612f2f82612ec8565b604082019050919050565b60006020820190508181036000830152612f5381612f17565b9050919050565b600081519050919050565b600082825260208201905092915050565b6000612f8182612f5a565b612f8b8185612f65565b9350612f9b818560208601611d63565b612fa481611d96565b840191505092915050565b6000608082019050612fc46000830187611e97565b612fd16020830186611e97565b612fde604083018561212b565b8181036060830152612ff08184612f76565b905095945050505050565b60008151905061300a81611cb8565b92915050565b60006020828403121561302657613025611c82565b5b600061303484828501612ffb565b91505092915050565b600061304882611e02565b91507fffffffffffffffffffffffffffffffffffffffffffffffffffffffffffffffff82141561307b5761307a6129e9565b5b600182019050919050565b600061309182611e02565b915061309c83611e02565b9250826130ac576130ab612cea565b5b828206905092915050565b7f4e487b7100000000000000000000000000000000000000000000000000000000600052603260045260246000fd5b7f4552433732313a206d696e7420746f20746865207a65726f2061646472657373600082015250565b600061311c602083611d52565b9150613127826130e6565b602082019050919050565b6000602082019050818103600083015261314b8161310f565b9050919050565b7f4552433732313a20746f6b656e20616c7265616479206d696e74656400000000600082015250565b6000613188601c83611d52565b915061319382613152565b602082019050919050565b600060208201905081810360008301526131b78161317b565b905091905056fe4142434445464748494a4b4c4d4e4f505152535455565758595a6162636465666768696a6b6c6d6e6f707172737475767778797a303132333435363738392b2fa26469706673582212208820b6c23ef4b774f93f6c4a828caaac7f9adba9f251da4412f047f05ba80a4164736f6c63430008090033",
  "devdoc": {
    "kind": "dev",
    "methods": {
      "approve(address,uint256)": {
        "details": "See {IERC721-approve}."
      },
      "balanceOf(address)": {
        "details": "See {IERC721-balanceOf}."
      },
      "getApproved(uint256)": {
        "details": "See {IERC721-getApproved}."
      },
      "isApprovedForAll(address,address)": {
        "details": "See {IERC721-isApprovedForAll}."
      },
      "name()": {
        "details": "See {IERC721Metadata-name}."
      },
      "ownerOf(uint256)": {
        "details": "See {IERC721-ownerOf}."
      },
      "safeTransferFrom(address,address,uint256)": {
        "details": "See {IERC721-safeTransferFrom}."
      },
      "safeTransferFrom(address,address,uint256,bytes)": {
        "details": "See {IERC721-safeTransferFrom}."
      },
      "setApprovalForAll(address,bool)": {
        "details": "See {IERC721-setApprovalForAll}."
      },
      "supportsInterface(bytes4)": {
        "details": "See {IERC165-supportsInterface}."
      },
      "symbol()": {
        "details": "See {IERC721Metadata-symbol}."
      },
      "tokenURI(uint256)": {
        "details": "See {IERC721Metadata-tokenURI}."
      },
      "transferFrom(address,address,uint256)": {
        "details": "See {IERC721-transferFrom}."
      }
    },
    "version": 1
  },
  "userdoc": {
    "kind": "user",
    "methods": {},
    "version": 1
  },
  "storageLayout": {
    "storage": [
      {
        "astId": 25,
        "contract": "contracts/SVGNFT.sol:SVGNFT",
        "label": "_name",
        "offset": 0,
        "slot": "0",
        "type": "t_string_storage"
      },
      {
        "astId": 27,
        "contract": "contracts/SVGNFT.sol:SVGNFT",
        "label": "_symbol",
        "offset": 0,
        "slot": "1",
        "type": "t_string_storage"
      },
      {
        "astId": 31,
        "contract": "contracts/SVGNFT.sol:SVGNFT",
        "label": "_owners",
        "offset": 0,
        "slot": "2",
        "type": "t_mapping(t_uint256,t_address)"
      },
      {
        "astId": 35,
        "contract": "contracts/SVGNFT.sol:SVGNFT",
        "label": "_balances",
        "offset": 0,
        "slot": "3",
        "type": "t_mapping(t_address,t_uint256)"
      },
      {
        "astId": 39,
        "contract": "contracts/SVGNFT.sol:SVGNFT",
        "label": "_tokenApprovals",
        "offset": 0,
        "slot": "4",
        "type": "t_mapping(t_uint256,t_address)"
      },
      {
        "astId": 45,
        "contract": "contracts/SVGNFT.sol:SVGNFT",
        "label": "_operatorApprovals",
        "offset": 0,
        "slot": "5",
        "type": "t_mapping(t_address,t_mapping(t_address,t_bool))"
      },
      {
        "astId": 962,
        "contract": "contracts/SVGNFT.sol:SVGNFT",
        "label": "_tokenURIs",
        "offset": 0,
        "slot": "6",
        "type": "t_mapping(t_uint256,t_string_storage)"
      },
      {
        "astId": 1720,
        "contract": "contracts/SVGNFT.sol:SVGNFT",
        "label": "tokenCounter",
        "offset": 0,
        "slot": "7",
        "type": "t_uint256"
      }
    ],
    "types": {
      "t_address": {
        "encoding": "inplace",
        "label": "address",
        "numberOfBytes": "20"
      },
      "t_bool": {
        "encoding": "inplace",
        "label": "bool",
        "numberOfBytes": "1"
      },
      "t_mapping(t_address,t_bool)": {
        "encoding": "mapping",
        "key": "t_address",
        "label": "mapping(address => bool)",
        "numberOfBytes": "32",
        "value": "t_bool"
      },
      "t_mapping(t_address,t_mapping(t_address,t_bool))": {
        "encoding": "mapping",
        "key": "t_address",
        "label": "mapping(address => mapping(address => bool))",
        "numberOfBytes": "32",
        "value": "t_mapping(t_address,t_bool)"
      },
      "t_mapping(t_address,t_uint256)": {
        "encoding": "mapping",
        "key": "t_address",
        "label": "mapping(address => uint256)",
        "numberOfBytes": "32",
        "value": "t_uint256"
      },
      "t_mapping(t_uint256,t_address)": {
        "encoding": "mapping",
        "key": "t_uint256",
        "label": "mapping(uint256 => address)",
        "numberOfBytes": "32",
        "value": "t_address"
      },
      "t_mapping(t_uint256,t_string_storage)": {
        "encoding": "mapping",
        "key": "t_uint256",
        "label": "mapping(uint256 => string)",
        "numberOfBytes": "32",
        "value": "t_string_storage"
      },
      "t_string_storage": {
        "encoding": "bytes",
        "label": "string",
        "numberOfBytes": "32"
      },
      "t_uint256": {
        "encoding": "inplace",
        "label": "uint256",
        "numberOfBytes": "32"
      }
    }
  }
}