{
  "address": "0xaDcBeC241e58E3965c7736050A6837Cc8a142AB1",
  "abi": [
    {
      "inputs": [],
      "stateMutability": "nonpayable",
      "type": "constructor"
    },
    {
      "anonymous": false,
      "inputs": [
        {
          "indexed": true,
          "internalType": "address",
          "name": "owner",
          "type": "address"
        },
        {
          "indexed": true,
          "internalType": "address",
          "name": "approved",
          "type": "address"
        },
        {
          "indexed": true,
          "internalType": "uint256",
          "name": "tokenId",
          "type": "uint256"
        }
      ],
      "name": "Approval",
      "type": "event"
    },
    {
      "anonymous": false,
      "inputs": [
        {
          "indexed": true,
          "internalType": "address",
          "name": "owner",
          "type": "address"
        },
        {
          "indexed": true,
          "internalType": "address",
          "name": "operator",
          "type": "address"
        },
        {
          "indexed": false,
          "internalType": "bool",
          "name": "approved",
          "type": "bool"
        }
      ],
      "name": "ApprovalForAll",
      "type": "event"
    },
    {
      "anonymous": false,
      "inputs": [
        {
          "indexed": true,
          "internalType": "uint256",
          "name": "tokenId",
          "type": "uint256"
        },
        {
          "indexed": false,
          "internalType": "string",
          "name": "tokenURI",
          "type": "string"
        }
      ],
      "name": "CreatedSVGNFT",
      "type": "event"
    },
    {
      "anonymous": false,
      "inputs": [
        {
          "indexed": true,
          "internalType": "address",
          "name": "previousOwner",
          "type": "address"
        },
        {
          "indexed": true,
          "internalType": "address",
          "name": "newOwner",
          "type": "address"
        }
      ],
      "name": "OwnershipTransferred",
      "type": "event"
    },
    {
      "anonymous": false,
      "inputs": [
        {
          "indexed": true,
          "internalType": "address",
          "name": "from",
          "type": "address"
        },
        {
          "indexed": true,
          "internalType": "address",
          "name": "to",
          "type": "address"
        },
        {
          "indexed": true,
          "internalType": "uint256",
          "name": "tokenId",
          "type": "uint256"
        }
      ],
      "name": "Transfer",
      "type": "event"
    },
    {
      "inputs": [
        {
          "internalType": "address",
          "name": "to",
          "type": "address"
        },
        {
          "internalType": "uint256",
          "name": "tokenId",
          "type": "uint256"
        }
      ],
      "name": "approve",
      "outputs": [],
      "stateMutability": "nonpayable",
      "type": "function"
    },
    {
      "inputs": [
        {
          "internalType": "address",
          "name": "owner",
          "type": "address"
        }
      ],
      "name": "balanceOf",
      "outputs": [
        {
          "internalType": "uint256",
          "name": "",
          "type": "uint256"
        }
      ],
      "stateMutability": "view",
      "type": "function"
    },
    {
      "inputs": [
        {
          "internalType": "string",
          "name": "svg",
          "type": "string"
        }
      ],
      "name": "create",
      "outputs": [],
      "stateMutability": "nonpayable",
      "type": "function"
    },
    {
      "inputs": [
        {
          "internalType": "string",
          "name": "imageURI",
          "type": "string"
        }
      ],
      "name": "formatTokenURI",
      "outputs": [
        {
          "internalType": "string",
          "name": "",
          "type": "string"
        }
      ],
      "stateMutability": "pure",
      "type": "function"
    },
    {
      "inputs": [
        {
          "internalType": "uint256",
          "name": "tokenId",
          "type": "uint256"
        }
      ],
      "name": "getApproved",
      "outputs": [
        {
          "internalType": "address",
          "name": "",
          "type": "address"
        }
      ],
      "stateMutability": "view",
      "type": "function"
    },
    {
      "inputs": [
        {
          "internalType": "address",
          "name": "owner",
          "type": "address"
        },
        {
          "internalType": "address",
          "name": "operator",
          "type": "address"
        }
      ],
      "name": "isApprovedForAll",
      "outputs": [
        {
          "internalType": "bool",
          "name": "",
          "type": "bool"
        }
      ],
      "stateMutability": "view",
      "type": "function"
    },
    {
      "inputs": [],
      "name": "name",
      "outputs": [
        {
          "internalType": "string",
          "name": "",
          "type": "string"
        }
      ],
      "stateMutability": "view",
      "type": "function"
    },
    {
      "inputs": [],
      "name": "owner",
      "outputs": [
        {
          "internalType": "address",
          "name": "",
          "type": "address"
        }
      ],
      "stateMutability": "view",
      "type": "function"
    },
    {
      "inputs": [
        {
          "internalType": "uint256",
          "name": "tokenId",
          "type": "uint256"
        }
      ],
      "name": "ownerOf",
      "outputs": [
        {
          "internalType": "address",
          "name": "",
          "type": "address"
        }
      ],
      "stateMutability": "view",
      "type": "function"
    },
    {
      "inputs": [],
      "name": "renounceOwnership",
      "outputs": [],
      "stateMutability": "nonpayable",
      "type": "function"
    },
    {
      "inputs": [
        {
          "internalType": "address",
          "name": "from",
          "type": "address"
        },
        {
          "internalType": "address",
          "name": "to",
          "type": "address"
        },
        {
          "internalType": "uint256",
          "name": "tokenId",
          "type": "uint256"
        }
      ],
      "name": "safeTransferFrom",
      "outputs": [],
      "stateMutability": "nonpayable",
      "type": "function"
    },
    {
      "inputs": [
        {
          "internalType": "address",
          "name": "from",
          "type": "address"
        },
        {
          "internalType": "address",
          "name": "to",
          "type": "address"
        },
        {
          "internalType": "uint256",
          "name": "tokenId",
          "type": "uint256"
        },
        {
          "internalType": "bytes",
          "name": "_data",
          "type": "bytes"
        }
      ],
      "name": "safeTransferFrom",
      "outputs": [],
      "stateMutability": "nonpayable",
      "type": "function"
    },
    {
      "inputs": [
        {
          "internalType": "address",
          "name": "operator",
          "type": "address"
        },
        {
          "internalType": "bool",
          "name": "approved",
          "type": "bool"
        }
      ],
      "name": "setApprovalForAll",
      "outputs": [],
      "stateMutability": "nonpayable",
      "type": "function"
    },
    {
      "inputs": [
        {
          "internalType": "bytes4",
          "name": "interfaceId",
          "type": "bytes4"
        }
      ],
      "name": "supportsInterface",
      "outputs": [
        {
          "internalType": "bool",
          "name": "",
          "type": "bool"
        }
      ],
      "stateMutability": "view",
      "type": "function"
    },
    {
      "inputs": [
        {
          "internalType": "string",
          "name": "svg",
          "type": "string"
        }
      ],
      "name": "svgToImageURI",
      "outputs": [
        {
          "internalType": "string",
          "name": "",
          "type": "string"
        }
      ],
      "stateMutability": "pure",
      "type": "function"
    },
    {
      "inputs": [],
      "name": "symbol",
      "outputs": [
        {
          "internalType": "string",
          "name": "",
          "type": "string"
        }
      ],
      "stateMutability": "view",
      "type": "function"
    },
    {
      "inputs": [],
      "name": "tokenCounter",
      "outputs": [
        {
          "internalType": "uint256",
          "name": "",
          "type": "uint256"
        }
      ],
      "stateMutability": "view",
      "type": "function"
    },
    {
      "inputs": [
        {
          "internalType": "uint256",
          "name": "tokenId",
          "type": "uint256"
        }
      ],
      "name": "tokenURI",
      "outputs": [
        {
          "internalType": "string",
          "name": "",
          "type": "string"
        }
      ],
      "stateMutability": "view",
      "type": "function"
    },
    {
      "inputs": [
        {
          "internalType": "address",
          "name": "from",
          "type": "address"
        },
        {
          "internalType": "address",
          "name": "to",
          "type": "address"
        },
        {
          "internalType": "uint256",
          "name": "tokenId",
          "type": "uint256"
        }
      ],
      "name": "transferFrom",
      "outputs": [],
      "stateMutability": "nonpayable",
      "type": "function"
    },
    {
      "inputs": [
        {
          "internalType": "address",
          "name": "newOwner",
          "type": "address"
        }
      ],
      "name": "transferOwnership",
      "outputs": [],
      "stateMutability": "nonpayable",
      "type": "function"
    }
  ],
  "transactionHash": "0x8c419dae9e4eec57319405b64679c42e83e91f94b92aed94b67544bd796e16f0",
  "args": [],
  "solcInputHash": "6e7642729bdd83a61bcbb287e985b9bc",
  "bytecode": "0x60806040523480156200001157600080fd5b506040518060400160405280600781526020017f535647204e4654000000000000000000000000000000000000000000000000008152506040518060400160405280600681526020017f7376674e46540000000000000000000000000000000000000000000000000000815250816000908051906020019062000096929190620001ae565b508060019080519060200190620000af929190620001ae565b505050620000d2620000c6620000e060201b60201c565b620000e860201b60201c565b6000600881905550620002c3565b600033905090565b6000600760009054906101000a900473ffffffffffffffffffffffffffffffffffffffff16905081600760006101000a81548173ffffffffffffffffffffffffffffffffffffffff021916908373ffffffffffffffffffffffffffffffffffffffff1602179055508173ffffffffffffffffffffffffffffffffffffffff168173ffffffffffffffffffffffffffffffffffffffff167f8be0079c531659141344cd1fd0a4f28419497f9722a3daafe3b4186f6b6457e060405160405180910390a35050565b828054620001bc906200028d565b90600052602060002090601f016020900481019282620001e057600085556200022c565b82601f10620001fb57805160ff19168380011785556200022c565b828001600101855582156200022c579182015b828111156200022b5782518255916020019190600101906200020e565b5b5090506200023b91906200023f565b5090565b5b808211156200025a57600081600090555060010162000240565b5090565b7f4e487b7100000000000000000000000000000000000000000000000000000000600052602260045260246000fd5b60006002820490506001821680620002a657607f821691505b60208210811415620002bd57620002bc6200025e565b5b50919050565b6135d780620002d36000396000f3fe608060405234801561001057600080fd5b506004361061012c5760003560e01c806371aee193116100ad578063b88d4fde11610071578063b88d4fde14610341578063c87b56dd1461035d578063d082e3811461038d578063e985e9c5146103ab578063f2fde38b146103db5761012c565b806371aee1931461029d5780638da5cb5b146102cd57806395d89b41146102eb578063a22cb46514610309578063b6a46b3b146103255761012c565b806330d871c6116100f457806330d871c6146101e757806342842e0e146102175780636352211e1461023357806370a0823114610263578063715018a6146102935761012c565b806301ffc9a71461013157806306fdde0314610161578063081812fc1461017f578063095ea7b3146101af57806323b872dd146101cb575b600080fd5b61014b60048036038101906101469190611f70565b6103f7565b6040516101589190611fb8565b60405180910390f35b6101696104d9565b604051610176919061206c565b60405180910390f35b610199600480360381019061019491906120c4565b61056b565b6040516101a69190612132565b60405180910390f35b6101c960048036038101906101c49190612179565b6105f0565b005b6101e560048036038101906101e091906121b9565b610708565b005b61020160048036038101906101fc9190612341565b610768565b60405161020e919061206c565b60405180910390f35b610231600480360381019061022c91906121b9565b6107fb565b005b61024d600480360381019061024891906120c4565b61081b565b60405161025a9190612132565b60405180910390f35b61027d6004803603810190610278919061238a565b6108cd565b60405161028a91906123c6565b60405180910390f35b61029b610985565b005b6102b760048036038101906102b29190612341565b610a0d565b6040516102c4919061206c565b60405180910390f35b6102d5610a5d565b6040516102e29190612132565b60405180910390f35b6102f3610a87565b604051610300919061206c565b60405180910390f35b610323600480360381019061031e919061240d565b610b19565b005b61033f600480360381019061033a9190612341565b610c9a565b005b61035b600480360381019061035691906124ee565b610d1a565b005b610377600480360381019061037291906120c4565b610d7c565b604051610384919061206c565b60405180910390f35b610395610ece565b6040516103a291906123c6565b60405180910390f35b6103c560048036038101906103c09190612571565b610ed4565b6040516103d29190611fb8565b60405180910390f35b6103f560048036038101906103f0919061238a565b610f68565b005b60007f80ac58cd000000000000000000000000000000000000000000000000000000007bffffffffffffffffffffffffffffffffffffffffffffffffffffffff1916827bffffffffffffffffffffffffffffffffffffffffffffffffffffffff191614806104c257507f5b5e139f000000000000000000000000000000000000000000000000000000007bffffffffffffffffffffffffffffffffffffffffffffffffffffffff1916827bffffffffffffffffffffffffffffffffffffffffffffffffffffffff1916145b806104d257506104d182611060565b5b9050919050565b6060600080546104e8906125e0565b80601f0160208091040260200160405190810160405280929190818152602001828054610514906125e0565b80156105615780601f1061053657610100808354040283529160200191610561565b820191906000526020600020905b81548152906001019060200180831161054457829003601f168201915b5050505050905090565b6000610576826110ca565b6105b5576040517f08c379a00000000000000000000000000000000000000000000000000000000081526004016105ac90612684565b60405180910390fd5b6004600083815260200190815260200160002060009054906101000a900473ffffffffffffffffffffffffffffffffffffffff169050919050565b60006105fb8261081b565b90508073ffffffffffffffffffffffffffffffffffffffff168373ffffffffffffffffffffffffffffffffffffffff16141561066c576040517f08c379a000000000000000000000000000000000000000000000000000000000815260040161066390612716565b60405180910390fd5b8073ffffffffffffffffffffffffffffffffffffffff1661068b611136565b73ffffffffffffffffffffffffffffffffffffffff1614806106ba57506106b9816106b4611136565b610ed4565b5b6106f9576040517f08c379a00000000000000000000000000000000000000000000000000000000081526004016106f0906127a8565b60405180910390fd5b610703838361113e565b505050565b610719610713611136565b826111f7565b610758576040517f08c379a000000000000000000000000000000000000000000000000000000000815260040161074f9061283a565b60405180910390fd5b6107638383836112d5565b505050565b606060006040518060400160405280601a81526020017f646174613a696d6167652f7376672b786d6c3b6261736536342c000000000000815250905060006107ce846040516020016107ba9190612896565b604051602081830303815290604052611531565b905081816040516020016107e39291906128ad565b60405160208183030381529060405292505050919050565b61081683838360405180602001604052806000815250610d1a565b505050565b6000806002600084815260200190815260200160002060009054906101000a900473ffffffffffffffffffffffffffffffffffffffff169050600073ffffffffffffffffffffffffffffffffffffffff168173ffffffffffffffffffffffffffffffffffffffff1614156108c4576040517f08c379a00000000000000000000000000000000000000000000000000000000081526004016108bb90612943565b60405180910390fd5b80915050919050565b60008073ffffffffffffffffffffffffffffffffffffffff168273ffffffffffffffffffffffffffffffffffffffff16141561093e576040517f08c379a0000000000000000000000000000000000000000000000000000000008152600401610935906129d5565b60405180910390fd5b600360008373ffffffffffffffffffffffffffffffffffffffff1673ffffffffffffffffffffffffffffffffffffffff168152602001908152602001600020549050919050565b61098d611136565b73ffffffffffffffffffffffffffffffffffffffff166109ab610a5d565b73ffffffffffffffffffffffffffffffffffffffff1614610a01576040517f08c379a00000000000000000000000000000000000000000000000000000000081526004016109f890612a41565b60405180910390fd5b610a0b60006116b6565b565b6060610a3782604051602001610a239190612bdd565b604051602081830303815290604052611531565b604051602001610a479190612c6c565b6040516020818303038152906040529050919050565b6000600760009054906101000a900473ffffffffffffffffffffffffffffffffffffffff16905090565b606060018054610a96906125e0565b80601f0160208091040260200160405190810160405280929190818152602001828054610ac2906125e0565b8015610b0f5780601f10610ae457610100808354040283529160200191610b0f565b820191906000526020600020905b815481529060010190602001808311610af257829003601f168201915b5050505050905090565b610b21611136565b73ffffffffffffffffffffffffffffffffffffffff168273ffffffffffffffffffffffffffffffffffffffff161415610b8f576040517f08c379a0000000000000000000000000000000000000000000000000000000008152600401610b8690612cda565b60405180910390fd5b8060056000610b9c611136565b73ffffffffffffffffffffffffffffffffffffffff1673ffffffffffffffffffffffffffffffffffffffff16815260200190815260200160002060008473ffffffffffffffffffffffffffffffffffffffff1673ffffffffffffffffffffffffffffffffffffffff16815260200190815260200160002060006101000a81548160ff0219169083151502179055508173ffffffffffffffffffffffffffffffffffffffff16610c49611136565b73ffffffffffffffffffffffffffffffffffffffff167f17307eab39ab6107e8899845ad3d59bd9653f200f220920489ca2b5937696c3183604051610c8e9190611fb8565b60405180910390a35050565b610ca63360085461177c565b6000610cb182610768565b9050610cc7600854610cc283610a0d565b61179a565b6001600854610cd69190612d29565b6008819055506008547ff5acc616aa8ecd00e5d76674d7812f9c3c3571d662c9fba4499deefa6d0be12d83604051610d0e919061206c565b60405180910390a25050565b610d2b610d25611136565b836111f7565b610d6a576040517f08c379a0000000000000000000000000000000000000000000000000000000008152600401610d619061283a565b60405180910390fd5b610d768484848461180e565b50505050565b6060610d87826110ca565b610dc6576040517f08c379a0000000000000000000000000000000000000000000000000000000008152600401610dbd90612df1565b60405180910390fd5b6000600660008481526020019081526020016000208054610de6906125e0565b80601f0160208091040260200160405190810160405280929190818152602001828054610e12906125e0565b8015610e5f5780601f10610e3457610100808354040283529160200191610e5f565b820191906000526020600020905b815481529060010190602001808311610e4257829003601f168201915b505050505090506000610e7061186a565b9050600081511415610e86578192505050610ec9565b600082511115610ebb578082604051602001610ea39291906128ad565b60405160208183030381529060405292505050610ec9565b610ec484611881565b925050505b919050565b60085481565b6000600560008473ffffffffffffffffffffffffffffffffffffffff1673ffffffffffffffffffffffffffffffffffffffff16815260200190815260200160002060008373ffffffffffffffffffffffffffffffffffffffff1673ffffffffffffffffffffffffffffffffffffffff16815260200190815260200160002060009054906101000a900460ff16905092915050565b610f70611136565b73ffffffffffffffffffffffffffffffffffffffff16610f8e610a5d565b73ffffffffffffffffffffffffffffffffffffffff1614610fe4576040517f08c379a0000000000000000000000000000000000000000000000000000000008152600401610fdb90612a41565b60405180910390fd5b600073ffffffffffffffffffffffffffffffffffffffff168173ffffffffffffffffffffffffffffffffffffffff161415611054576040517f08c379a000000000000000000000000000000000000000000000000000000000815260040161104b90612e83565b60405180910390fd5b61105d816116b6565b50565b60007f01ffc9a7000000000000000000000000000000000000000000000000000000007bffffffffffffffffffffffffffffffffffffffffffffffffffffffff1916827bffffffffffffffffffffffffffffffffffffffffffffffffffffffff1916149050919050565b60008073ffffffffffffffffffffffffffffffffffffffff166002600084815260200190815260200160002060009054906101000a900473ffffffffffffffffffffffffffffffffffffffff1673ffffffffffffffffffffffffffffffffffffffff1614159050919050565b600033905090565b816004600083815260200190815260200160002060006101000a81548173ffffffffffffffffffffffffffffffffffffffff021916908373ffffffffffffffffffffffffffffffffffffffff160217905550808273ffffffffffffffffffffffffffffffffffffffff166111b18361081b565b73ffffffffffffffffffffffffffffffffffffffff167f8c5be1e5ebec7d5bd14f71427d1e84f3dd0314c0f7b2291e5b200ac8c7c3b92560405160405180910390a45050565b6000611202826110ca565b611241576040517f08c379a000000000000000000000000000000000000000000000000000000000815260040161123890612f15565b60405180910390fd5b600061124c8361081b565b90508073ffffffffffffffffffffffffffffffffffffffff168473ffffffffffffffffffffffffffffffffffffffff1614806112bb57508373ffffffffffffffffffffffffffffffffffffffff166112a38461056b565b73ffffffffffffffffffffffffffffffffffffffff16145b806112cc57506112cb8185610ed4565b5b91505092915050565b8273ffffffffffffffffffffffffffffffffffffffff166112f58261081b565b73ffffffffffffffffffffffffffffffffffffffff161461134b576040517f08c379a000000000000000000000000000000000000000000000000000000000815260040161134290612fa7565b60405180910390fd5b600073ffffffffffffffffffffffffffffffffffffffff168273ffffffffffffffffffffffffffffffffffffffff1614156113bb576040517f08c379a00000000000000000000000000000000000000000000000000000000081526004016113b290613039565b60405180910390fd5b6113c6838383611928565b6113d160008261113e565b6001600360008573ffffffffffffffffffffffffffffffffffffffff1673ffffffffffffffffffffffffffffffffffffffff16815260200190815260200160002060008282546114219190613059565b925050819055506001600360008473ffffffffffffffffffffffffffffffffffffffff1673ffffffffffffffffffffffffffffffffffffffff16815260200190815260200160002060008282546114789190612d29565b92505081905550816002600083815260200190815260200160002060006101000a81548173ffffffffffffffffffffffffffffffffffffffff021916908373ffffffffffffffffffffffffffffffffffffffff160217905550808273ffffffffffffffffffffffffffffffffffffffff168473ffffffffffffffffffffffffffffffffffffffff167fddf252ad1be2c89b69c2b068fc378daa952ba7f163c4a11628f55a4df523b3ef60405160405180910390a4505050565b6060600082511415611554576040518060200160405280600081525090506116b1565b600060405180606001604052806040815260200161356260409139905060006003600285516115839190612d29565b61158d91906130bc565b600461159991906130ed565b905060006020826115aa9190612d29565b67ffffffffffffffff8111156115c3576115c2612216565b5b6040519080825280601f01601f1916602001820160405280156115f55781602001600182028036833780820191505090505b509050818152600183018586518101602084015b81831015611670576003830192508251603f8160121c1685015160f81b8252600182019150603f81600c1c1685015160f81b8252600182019150603f8160061c1685015160f81b8252600182019150603f811685015160f81b825260018201915050611609565b60038951066001811461168a576002811461169a576116a5565b613d3d60f01b60028303526116a5565b603d60f81b60018303525b50505050508093505050505b919050565b6000600760009054906101000a900473ffffffffffffffffffffffffffffffffffffffff16905081600760006101000a81548173ffffffffffffffffffffffffffffffffffffffff021916908373ffffffffffffffffffffffffffffffffffffffff1602179055508173ffffffffffffffffffffffffffffffffffffffff168173ffffffffffffffffffffffffffffffffffffffff167f8be0079c531659141344cd1fd0a4f28419497f9722a3daafe3b4186f6b6457e060405160405180910390a35050565b61179682826040518060200160405280600081525061192d565b5050565b6117a3826110ca565b6117e2576040517f08c379a00000000000000000000000000000000000000000000000000000000081526004016117d9906131b9565b60405180910390fd5b80600660008481526020019081526020016000209080519060200190611809929190611e61565b505050565b6118198484846112d5565b61182584848484611988565b611864576040517f08c379a000000000000000000000000000000000000000000000000000000000815260040161185b9061324b565b60405180910390fd5b50505050565b606060405180602001604052806000815250905090565b606061188c826110ca565b6118cb576040517f08c379a00000000000000000000000000000000000000000000000000000000081526004016118c2906132dd565b60405180910390fd5b60006118d561186a565b905060008151116118f55760405180602001604052806000815250611920565b806118ff84611b1f565b6040516020016119109291906128ad565b6040516020818303038152906040525b915050919050565b505050565b6119378383611c80565b6119446000848484611988565b611983576040517f08c379a000000000000000000000000000000000000000000000000000000000815260040161197a9061324b565b60405180910390fd5b505050565b60006119a98473ffffffffffffffffffffffffffffffffffffffff16611e4e565b15611b12578373ffffffffffffffffffffffffffffffffffffffff1663150b7a026119d2611136565b8786866040518563ffffffff1660e01b81526004016119f49493929190613352565b602060405180830381600087803b158015611a0e57600080fd5b505af1925050508015611a3f57506040513d601f19601f82011682018060405250810190611a3c91906133b3565b60015b611ac2573d8060008114611a6f576040519150601f19603f3d011682016040523d82523d6000602084013e611a74565b606091505b50600081511415611aba576040517f08c379a0000000000000000000000000000000000000000000000000000000008152600401611ab19061324b565b60405180910390fd5b805181602001fd5b63150b7a0260e01b7bffffffffffffffffffffffffffffffffffffffffffffffffffffffff1916817bffffffffffffffffffffffffffffffffffffffffffffffffffffffff191614915050611b17565b600190505b949350505050565b60606000821415611b67576040518060400160405280600181526020017f30000000000000000000000000000000000000000000000000000000000000008152509050611c7b565b600082905060005b60008214611b99578080611b82906133e0565b915050600a82611b9291906130bc565b9150611b6f565b60008167ffffffffffffffff811115611bb557611bb4612216565b5b6040519080825280601f01601f191660200182016040528015611be75781602001600182028036833780820191505090505b5090505b60008514611c7457600182611c009190613059565b9150600a85611c0f9190613429565b6030611c1b9190612d29565b60f81b818381518110611c3157611c3061345a565b5b60200101907effffffffffffffffffffffffffffffffffffffffffffffffffffffffffffff1916908160001a905350600a85611c6d91906130bc565b9450611beb565b8093505050505b919050565b600073ffffffffffffffffffffffffffffffffffffffff168273ffffffffffffffffffffffffffffffffffffffff161415611cf0576040517f08c379a0000000000000000000000000000000000000000000000000000000008152600401611ce7906134d5565b60405180910390fd5b611cf9816110ca565b15611d39576040517f08c379a0000000000000000000000000000000000000000000000000000000008152600401611d3090613541565b60405180910390fd5b611d4560008383611928565b6001600360008473ffffffffffffffffffffffffffffffffffffffff1673ffffffffffffffffffffffffffffffffffffffff1681526020019081526020016000206000828254611d959190612d29565b92505081905550816002600083815260200190815260200160002060006101000a81548173ffffffffffffffffffffffffffffffffffffffff021916908373ffffffffffffffffffffffffffffffffffffffff160217905550808273ffffffffffffffffffffffffffffffffffffffff16600073ffffffffffffffffffffffffffffffffffffffff167fddf252ad1be2c89b69c2b068fc378daa952ba7f163c4a11628f55a4df523b3ef60405160405180910390a45050565b600080823b905060008111915050919050565b828054611e6d906125e0565b90600052602060002090601f016020900481019282611e8f5760008555611ed6565b82601f10611ea857805160ff1916838001178555611ed6565b82800160010185558215611ed6579182015b82811115611ed5578251825591602001919060010190611eba565b5b509050611ee39190611ee7565b5090565b5b80821115611f00576000816000905550600101611ee8565b5090565b6000604051905090565b600080fd5b600080fd5b60007fffffffff0000000000000000000000000000000000000000000000000000000082169050919050565b611f4d81611f18565b8114611f5857600080fd5b50565b600081359050611f6a81611f44565b92915050565b600060208284031215611f8657611f85611f0e565b5b6000611f9484828501611f5b565b91505092915050565b60008115159050919050565b611fb281611f9d565b82525050565b6000602082019050611fcd6000830184611fa9565b92915050565b600081519050919050565b600082825260208201905092915050565b60005b8381101561200d578082015181840152602081019050611ff2565b8381111561201c576000848401525b50505050565b6000601f19601f8301169050919050565b600061203e82611fd3565b6120488185611fde565b9350612058818560208601611fef565b61206181612022565b840191505092915050565b600060208201905081810360008301526120868184612033565b905092915050565b6000819050919050565b6120a18161208e565b81146120ac57600080fd5b50565b6000813590506120be81612098565b92915050565b6000602082840312156120da576120d9611f0e565b5b60006120e8848285016120af565b91505092915050565b600073ffffffffffffffffffffffffffffffffffffffff82169050919050565b600061211c826120f1565b9050919050565b61212c81612111565b82525050565b60006020820190506121476000830184612123565b92915050565b61215681612111565b811461216157600080fd5b50565b6000813590506121738161214d565b92915050565b600080604083850312156121905761218f611f0e565b5b600061219e85828601612164565b92505060206121af858286016120af565b9150509250929050565b6000806000606084860312156121d2576121d1611f0e565b5b60006121e086828701612164565b93505060206121f186828701612164565b9250506040612202868287016120af565b9150509250925092565b600080fd5b600080fd5b7f4e487b7100000000000000000000000000000000000000000000000000000000600052604160045260246000fd5b61224e82612022565b810181811067ffffffffffffffff8211171561226d5761226c612216565b5b80604052505050565b6000612280611f04565b905061228c8282612245565b919050565b600067ffffffffffffffff8211156122ac576122ab612216565b5b6122b582612022565b9050602081019050919050565b82818337600083830152505050565b60006122e46122df84612291565b612276565b905082815260208101848484011115612300576122ff612211565b5b61230b8482856122c2565b509392505050565b600082601f8301126123285761232761220c565b5b81356123388482602086016122d1565b91505092915050565b60006020828403121561235757612356611f0e565b5b600082013567ffffffffffffffff81111561237557612374611f13565b5b61238184828501612313565b91505092915050565b6000602082840312156123a05761239f611f0e565b5b60006123ae84828501612164565b91505092915050565b6123c08161208e565b82525050565b60006020820190506123db60008301846123b7565b92915050565b6123ea81611f9d565b81146123f557600080fd5b50565b600081359050612407816123e1565b92915050565b6000806040838503121561242457612423611f0e565b5b600061243285828601612164565b9250506020612443858286016123f8565b9150509250929050565b600067ffffffffffffffff82111561246857612467612216565b5b61247182612022565b9050602081019050919050565b600061249161248c8461244d565b612276565b9050828152602081018484840111156124ad576124ac612211565b5b6124b88482856122c2565b509392505050565b600082601f8301126124d5576124d461220c565b5b81356124e584826020860161247e565b91505092915050565b6000806000806080858703121561250857612507611f0e565b5b600061251687828801612164565b945050602061252787828801612164565b9350506040612538878288016120af565b925050606085013567ffffffffffffffff81111561255957612558611f13565b5b612565878288016124c0565b91505092959194509250565b6000806040838503121561258857612587611f0e565b5b600061259685828601612164565b92505060206125a785828601612164565b9150509250929050565b7f4e487b7100000000000000000000000000000000000000000000000000000000600052602260045260246000fd5b600060028204905060018216806125f857607f821691505b6020821081141561260c5761260b6125b1565b5b50919050565b7f4552433732313a20617070726f76656420717565727920666f72206e6f6e657860008201527f697374656e7420746f6b656e0000000000000000000000000000000000000000602082015250565b600061266e602c83611fde565b915061267982612612565b604082019050919050565b6000602082019050818103600083015261269d81612661565b9050919050565b7f4552433732313a20617070726f76616c20746f2063757272656e74206f776e6560008201527f7200000000000000000000000000000000000000000000000000000000000000602082015250565b6000612700602183611fde565b915061270b826126a4565b604082019050919050565b6000602082019050818103600083015261272f816126f3565b9050919050565b7f4552433732313a20617070726f76652063616c6c6572206973206e6f74206f7760008201527f6e6572206e6f7220617070726f76656420666f7220616c6c0000000000000000602082015250565b6000612792603883611fde565b915061279d82612736565b604082019050919050565b600060208201905081810360008301526127c181612785565b9050919050565b7f4552433732313a207472616e736665722063616c6c6572206973206e6f74206f60008201527f776e6572206e6f7220617070726f766564000000000000000000000000000000602082015250565b6000612824603183611fde565b915061282f826127c8565b604082019050919050565b6000602082019050818103600083015261285381612817565b9050919050565b600081905092915050565b600061287082611fd3565b61287a818561285a565b935061288a818560208601611fef565b80840191505092915050565b60006128a28284612865565b915081905092915050565b60006128b98285612865565b91506128c58284612865565b91508190509392505050565b7f4552433732313a206f776e657220717565727920666f72206e6f6e657869737460008201527f656e7420746f6b656e0000000000000000000000000000000000000000000000602082015250565b600061292d602983611fde565b9150612938826128d1565b604082019050919050565b6000602082019050818103600083015261295c81612920565b9050919050565b7f4552433732313a2062616c616e636520717565727920666f7220746865207a6560008201527f726f206164647265737300000000000000000000000000000000000000000000602082015250565b60006129bf602a83611fde565b91506129ca82612963565b604082019050919050565b600060208201905081810360008301526129ee816129b2565b9050919050565b7f4f776e61626c653a2063616c6c6572206973206e6f7420746865206f776e6572600082015250565b6000612a2b602083611fde565b9150612a36826129f5565b602082019050919050565b60006020820190508181036000830152612a5a81612a1e565b9050919050565b7f7b226e616d65223a220000000000000000000000000000000000000000000000600082015250565b6000612a9760098361285a565b9150612aa282612a61565b600982019050919050565b7f535647204e465400000000000000000000000000000000000000000000000000600082015250565b6000612ae360078361285a565b9150612aee82612aad565b600782019050919050565b7f222c20226465736372697074696f6e223a22416e204e4654206261736564206f60008201527f6e2053564721222c202261747472696275746573223a22222c2022696d61676560208201527f223a220000000000000000000000000000000000000000000000000000000000604082015250565b6000612b7b60438361285a565b9150612b8682612af9565b604382019050919050565b7f227d000000000000000000000000000000000000000000000000000000000000600082015250565b6000612bc760028361285a565b9150612bd282612b91565b600282019050919050565b6000612be882612a8a565b9150612bf382612ad6565b9150612bfe82612b6e565b9150612c0a8284612865565b9150612c1582612bba565b915081905092915050565b7f646174613a6170706c69636174696f6e2f6a736f6e3b6261736536342c000000600082015250565b6000612c56601d8361285a565b9150612c6182612c20565b601d82019050919050565b6000612c7782612c49565b9150612c838284612865565b915081905092915050565b7f4552433732313a20617070726f766520746f2063616c6c657200000000000000600082015250565b6000612cc4601983611fde565b9150612ccf82612c8e565b602082019050919050565b60006020820190508181036000830152612cf381612cb7565b9050919050565b7f4e487b7100000000000000000000000000000000000000000000000000000000600052601160045260246000fd5b6000612d348261208e565b9150612d3f8361208e565b9250827fffffffffffffffffffffffffffffffffffffffffffffffffffffffffffffffff03821115612d7457612d73612cfa565b5b828201905092915050565b7f45524337323155524953746f726167653a2055524920717565727920666f722060008201527f6e6f6e6578697374656e7420746f6b656e000000000000000000000000000000602082015250565b6000612ddb603183611fde565b9150612de682612d7f565b604082019050919050565b60006020820190508181036000830152612e0a81612dce565b9050919050565b7f4f776e61626c653a206e6577206f776e657220697320746865207a65726f206160008201527f6464726573730000000000000000000000000000000000000000000000000000602082015250565b6000612e6d602683611fde565b9150612e7882612e11565b604082019050919050565b60006020820190508181036000830152612e9c81612e60565b9050919050565b7f4552433732313a206f70657261746f7220717565727920666f72206e6f6e657860008201527f697374656e7420746f6b656e0000000000000000000000000000000000000000602082015250565b6000612eff602c83611fde565b9150612f0a82612ea3565b604082019050919050565b60006020820190508181036000830152612f2e81612ef2565b9050919050565b7f4552433732313a207472616e73666572206f6620746f6b656e2074686174206960008201527f73206e6f74206f776e0000000000000000000000000000000000000000000000602082015250565b6000612f91602983611fde565b9150612f9c82612f35565b604082019050919050565b60006020820190508181036000830152612fc081612f84565b9050919050565b7f4552433732313a207472616e7366657220746f20746865207a65726f2061646460008201527f7265737300000000000000000000000000000000000000000000000000000000602082015250565b6000613023602483611fde565b915061302e82612fc7565b604082019050919050565b6000602082019050818103600083015261305281613016565b9050919050565b60006130648261208e565b915061306f8361208e565b92508282101561308257613081612cfa565b5b828203905092915050565b7f4e487b7100000000000000000000000000000000000000000000000000000000600052601260045260246000fd5b60006130c78261208e565b91506130d28361208e565b9250826130e2576130e161308d565b5b828204905092915050565b60006130f88261208e565b91506131038361208e565b9250817fffffffffffffffffffffffffffffffffffffffffffffffffffffffffffffffff048311821515161561313c5761313b612cfa565b5b828202905092915050565b7f45524337323155524953746f726167653a2055524920736574206f66206e6f6e60008201527f6578697374656e7420746f6b656e000000000000000000000000000000000000602082015250565b60006131a3602e83611fde565b91506131ae82613147565b604082019050919050565b600060208201905081810360008301526131d281613196565b9050919050565b7f4552433732313a207472616e7366657220746f206e6f6e20455243373231526560008201527f63656976657220696d706c656d656e7465720000000000000000000000000000602082015250565b6000613235603283611fde565b9150613240826131d9565b604082019050919050565b6000602082019050818103600083015261326481613228565b9050919050565b7f4552433732314d657461646174613a2055524920717565727920666f72206e6f60008201527f6e6578697374656e7420746f6b656e0000000000000000000000000000000000602082015250565b60006132c7602f83611fde565b91506132d28261326b565b604082019050919050565b600060208201905081810360008301526132f6816132ba565b9050919050565b600081519050919050565b600082825260208201905092915050565b6000613324826132fd565b61332e8185613308565b935061333e818560208601611fef565b61334781612022565b840191505092915050565b60006080820190506133676000830187612123565b6133746020830186612123565b61338160408301856123b7565b81810360608301526133938184613319565b905095945050505050565b6000815190506133ad81611f44565b92915050565b6000602082840312156133c9576133c8611f0e565b5b60006133d78482850161339e565b91505092915050565b60006133eb8261208e565b91507fffffffffffffffffffffffffffffffffffffffffffffffffffffffffffffffff82141561341e5761341d612cfa565b5b600182019050919050565b60006134348261208e565b915061343f8361208e565b92508261344f5761344e61308d565b5b828206905092915050565b7f4e487b7100000000000000000000000000000000000000000000000000000000600052603260045260246000fd5b7f4552433732313a206d696e7420746f20746865207a65726f2061646472657373600082015250565b60006134bf602083611fde565b91506134ca82613489565b602082019050919050565b600060208201905081810360008301526134ee816134b2565b9050919050565b7f4552433732313a20746f6b656e20616c7265616479206d696e74656400000000600082015250565b600061352b601c83611fde565b9150613536826134f5565b602082019050919050565b6000602082019050818103600083015261355a8161351e565b905091905056fe4142434445464748494a4b4c4d4e4f505152535455565758595a6162636465666768696a6b6c6d6e6f707172737475767778797a303132333435363738392b2fa26469706673582212208821a73030eafe0676cc8f0fe9d07ea6fad89db5a2eed7c6740a79b9bdc4aa0164736f6c63430008090033",
  "devdoc": {
    "kind": "dev",
    "methods": {
      "approve(address,uint256)": {
        "details": "See {IERC721-approve}."
      },
      "balanceOf(address)": {
        "details": "See {IERC721-balanceOf}."
      },
      "getApproved(uint256)": {
        "details": "See {IERC721-getApproved}."
      },
      "isApprovedForAll(address,address)": {
        "details": "See {IERC721-isApprovedForAll}."
      },
      "name()": {
        "details": "See {IERC721Metadata-name}."
      },
      "owner()": {
        "details": "Returns the address of the current owner."
      },
      "ownerOf(uint256)": {
        "details": "See {IERC721-ownerOf}."
      },
      "renounceOwnership()": {
        "details": "Leaves the contract without owner. It will not be possible to call `onlyOwner` functions anymore. Can only be called by the current owner. NOTE: Renouncing ownership will leave the contract without an owner, thereby removing any functionality that is only available to the owner."
      },
      "safeTransferFrom(address,address,uint256)": {
        "details": "See {IERC721-safeTransferFrom}."
      },
      "safeTransferFrom(address,address,uint256,bytes)": {
        "details": "See {IERC721-safeTransferFrom}."
      },
      "setApprovalForAll(address,bool)": {
        "details": "See {IERC721-setApprovalForAll}."
      },
      "supportsInterface(bytes4)": {
        "details": "See {IERC165-supportsInterface}."
      },
      "symbol()": {
        "details": "See {IERC721Metadata-symbol}."
      },
      "tokenURI(uint256)": {
        "details": "See {IERC721Metadata-tokenURI}."
      },
      "transferFrom(address,address,uint256)": {
        "details": "See {IERC721-transferFrom}."
      },
      "transferOwnership(address)": {
        "details": "Transfers ownership of the contract to a new account (`newOwner`). Can only be called by the current owner."
      }
    },
    "version": 1
  },
  "userdoc": {
    "kind": "user",
    "methods": {},
    "version": 1
  },
  "storageLayout": {
    "storage": [
      {
        "astId": 129,
        "contract": "contracts/SVGNFT.sol:SVGNFT",
        "label": "_name",
        "offset": 0,
        "slot": "0",
        "type": "t_string_storage"
      },
      {
        "astId": 131,
        "contract": "contracts/SVGNFT.sol:SVGNFT",
        "label": "_symbol",
        "offset": 0,
        "slot": "1",
        "type": "t_string_storage"
      },
      {
        "astId": 135,
        "contract": "contracts/SVGNFT.sol:SVGNFT",
        "label": "_owners",
        "offset": 0,
        "slot": "2",
        "type": "t_mapping(t_uint256,t_address)"
      },
      {
        "astId": 139,
        "contract": "contracts/SVGNFT.sol:SVGNFT",
        "label": "_balances",
        "offset": 0,
        "slot": "3",
        "type": "t_mapping(t_address,t_uint256)"
      },
      {
        "astId": 143,
        "contract": "contracts/SVGNFT.sol:SVGNFT",
        "label": "_tokenApprovals",
        "offset": 0,
        "slot": "4",
        "type": "t_mapping(t_uint256,t_address)"
      },
      {
        "astId": 149,
        "contract": "contracts/SVGNFT.sol:SVGNFT",
        "label": "_operatorApprovals",
        "offset": 0,
        "slot": "5",
        "type": "t_mapping(t_address,t_mapping(t_address,t_bool))"
      },
      {
        "astId": 1066,
        "contract": "contracts/SVGNFT.sol:SVGNFT",
        "label": "_tokenURIs",
        "offset": 0,
        "slot": "6",
        "type": "t_mapping(t_uint256,t_string_storage)"
      },
      {
        "astId": 7,
        "contract": "contracts/SVGNFT.sol:SVGNFT",
        "label": "_owner",
        "offset": 0,
        "slot": "7",
        "type": "t_address"
      },
      {
        "astId": 1827,
        "contract": "contracts/SVGNFT.sol:SVGNFT",
        "label": "tokenCounter",
        "offset": 0,
        "slot": "8",
        "type": "t_uint256"
      }
    ],
    "types": {
      "t_address": {
        "encoding": "inplace",
        "label": "address",
        "numberOfBytes": "20"
      },
      "t_bool": {
        "encoding": "inplace",
        "label": "bool",
        "numberOfBytes": "1"
      },
      "t_mapping(t_address,t_bool)": {
        "encoding": "mapping",
        "key": "t_address",
        "label": "mapping(address => bool)",
        "numberOfBytes": "32",
        "value": "t_bool"
      },
      "t_mapping(t_address,t_mapping(t_address,t_bool))": {
        "encoding": "mapping",
        "key": "t_address",
        "label": "mapping(address => mapping(address => bool))",
        "numberOfBytes": "32",
        "value": "t_mapping(t_address,t_bool)"
      },
      "t_mapping(t_address,t_uint256)": {
        "encoding": "mapping",
        "key": "t_address",
        "label": "mapping(address => uint256)",
        "numberOfBytes": "32",
        "value": "t_uint256"
      },
      "t_mapping(t_uint256,t_address)": {
        "encoding": "mapping",
        "key": "t_uint256",
        "label": "mapping(uint256 => address)",
        "numberOfBytes": "32",
        "value": "t_address"
      },
      "t_mapping(t_uint256,t_string_storage)": {
        "encoding": "mapping",
        "key": "t_uint256",
        "label": "mapping(uint256 => string)",
        "numberOfBytes": "32",
        "value": "t_string_storage"
      },
      "t_string_storage": {
        "encoding": "bytes",
        "label": "string",
        "numberOfBytes": "32"
      },
      "t_uint256": {
        "encoding": "inplace",
        "label": "uint256",
        "numberOfBytes": "32"
      }
    }
  }
}